:020000040000fa
:10000000f87f0020ad040000bf060000c10600001c
:1000100000000000000000000000000000000000e0
:10002000000000000000000000000000bd0600000d
:100030000000000000000000bd060000bd0600003a
:10004000bd060000bd060000bd060000bd060000a4
:10005000bd060000bd060000bd060000bd06000094
:10006000bd060000bd060000bd060000bd06000084
:10007000bd060000dd000000bd060000bd0600005a
:10008000bd060000bd060000bd060000bd06000064
:10009000bd060000bd060000bd060000bd06000054
:1000a000bd060000bd060000bd060000bd06000044
:0c00b000bd060000bd060000bd060000fb
:020000040000fa
:1000bc00f8b5c046f8bc08bc9e4670478d040000dd
:1000cc00f8b5c046f8bc08bc9e46704765040000f5
:020000040000fa
:1000dc00f8b5ce46474680b55b4b9b7d002b17d0c1
:1000ec00594a137edbb2927d52b2002a14db564a77
:1000fc00137edbb2927dd20702d5db0700d588e0f8
:10010c00514a137edbb2927d520701d55b0752d464
:10011c000cbc90469946f8bd5bb2002be7da4a4b13
:10012c005b8b07221340e2d0484ce38500f06efa5b
:10013c00454b84221a752c230022e254636a002b4f
:10014c00d5d0424a906a9847d1e78368591c8160a0
:10015c006146cb5c1385b168137e4d462b420fd0a4
:10016c008c420dd953683b40012beed143469b6822
:10017c00591c4546a9605b0061465b5a1385eae74a
:10018c00324b9a685b689a42bad3304b00221a758c
:10019c005a602d4a01211175db68002bb0d02b4a17
:1001ac0010699847ace7294988690a6a541c0c62a3
:1001bc005200135217e0254a2c23d35c002ba7d0f6
:1001cc00224b1a6adb699a42a2d21f4a138d9bb248
:1001dc00516807220a40012ae5d01c4a9069116a2d
:1001ec004c1c14624354194b1a6adb699a4200d0b6
:1001fc008ee7164b00222c215a54da61124a5831e0
:10020c0011755b6a002b00d182e7104a906a9847ff
:10021c007ee70e4b1b7d002b00d171e70b4b9a68d0
:10022c005c68094b1b7edb07aad5a242a8d2074b00
:10023c001b689c46044a0727044b984618001e006e
:10024c00012399468ee7c0460014004200000020ae
:020000040000fa
:10025c00284b294a1a8219000122cb681a42fcd079
:10026c00264b5a6852031b68db0c13439b029b0af8
:10027c00204a936303235375110004228b691a429d
:10028c00fcd11c491022cb681a42fcd01c4b00221a
:10029c009a611a61174b1b4a5a6217221a6218008c
:1002ac002c21133a435c1342fcd1124b02221a77d5
:1002bc0018002c21435c1342fcd10e483021032240
:1002cc00435c1340032bfbd10f4b104a1a621900ed
:1002dc0004224b681a42fcd10b4adc234021d1503a
:1002ec0010009c31402243581a42fcd0084b20226b
:1002fc00da617047001000400202000020608000ac
:10030c000014004010000200001c00400701010016
:04031c000008004095
:020000040000fa
:10032000f0b5c6461f4a204b00b50021934203d2c8
:10033000197001339342fbd10b231c4a9c46083ba6
:1003400098461368546819000026214311d01700fd
:1003500091680c3700290fd11a19002c03d01e7098
:1003600001339342fbd13a001368546819002143ca
:10037000edd104bc9046f0bd6146c91a1d19511853
:10038000002c05d05a1c505c187013009542f9d10e
:10039000434623405a1e9341a4081c19a4003f1948
:1003a0003a00e1e70000002000000020bc0500004a
:020000040000fa
:1003b00070b5002826d0144b1a7d0023002a1fd1c7
:1003c000114b1860596001321a7500230f4c01253a
:1003d000072602e0c25c22850133227e2a4209d030
:1003e000994207d062683240012af3d15a00825afa
:1003f0002285f1e7044a9360044b01229a75012398
:10040000180070bd0023fbe700000020001400422c
:020000040000fa
:10041000114b124a1a60d22252429a81c022920291
:100420005a601a00d369002bfcd10b4a13680221d1
:100430000b431360d369002bfcd1094b00229a6156
:10044000da611a622c215a545a621a605a609a6010
:100450001a75da60da8570470014004204013140f1
:040460000000002078
:020000040000fa
:1004640010b5064c2378002b07d1054b002b02d086
:10047400044800e000bf0123237010bd30000020b9
:100484000000000000000000044b10b5002b03d056
:100494000349044800e000bf10bdc046000000004e
:0804a4003400002000000000fc
:020000040000fa
:1004ac0010b50a4b98470a4b9847fff733ff094b97
:1004bc00ff229343084a9360084b9847084b984790
:1004cc00084b984700f054f8fee7c046c3060000fe
:1004dc00c30600000000000000ed00e0f504000081
:0804ec00c3060000c306000076
:020000040000fa
:1004f40070b500260c4d0d4c641ba410a64209d106
:100504000026fff7d9fd0a4d0a4c641ba410a6422d
:1005140005d170bdb300eb5898470136eee7b30040
:10052400eb5898470136f2e7c8000000c800000005
:08053400c8000000cc0000002b
:020000040000fa
:10053c0070b50d4b5e681b68db0714d50b4b58432d
:10054c00094b9b6800280ed00021074c013605e0b2
:10055c00b51aeb18c9181300884204d9a2689a423c
:10056c00f6d89b1af6e770bd10e000e080bb0000e7
:020000040000fa
:10057c0070b584b0002000f05ff801ac0a4dfa268b
:10058c00b60023002a0003ca03c312881a800a216a
:10059c002000fff707ff3000fff7caff034b013bba
:1005ac00002bfcd1ede7c046b00600007f9698000a
:020000040000fa
:1005bc00300000201c0000000000000000000020a3
:1005cc0030000000000000004c000020040000007f
:1005dc000000000000000000000000002222222287
:020000040000fa
:1005ec00bff35f8f62b6074bc32080001a580649d1
:1005fc001140c02212020a431a50802292011a6042
:0c060c007047c04600e100e0ff00ffff67
:020000040000fa
:10061800094b5b8b5b070dd0074b80221a76793a22
:100628005a831b7e5b0705d5034b04211a8d1a7e5e
:0c0638000a42fbd17047c046001400428b
:020000040000fa
:1006440010b5094b06225a6000f01ef8fff704fead
:1006540000f026f800f023f800f008f8fff7d6fec3
:0c066400fff7c2ff10bdc046004000417f
:020000040000fa
:10067000044b00221a609a60034a5a6004221a60ee
:0c0680007047c04610e000e07fbb0000a7
:020000040000fa
:10068c008223db050122ca215a5401315a54b43257
:06069c00983999547047e3
:020000040000fa
:0206a20070479f
:020000040000fa
:0c06a400014b84225a6070470040004166
:020000040000fa
:0c06b00073656e64696e670a0d00c04639
:020000040000fa
:0206bc00fee757
:020000040000fa
:0206be00fee755
:020000040000fa
:0206c000fee753
:020000040000fa
:0206c20070477f
:020000040000fa
:0200000400807a
:04400000770800003d
:020000040000fa
:0200000400807a
:044004000000ffffba
:00000001FF
