:020000040000fa
:10000000f07f002049050000c5070000c707000079
:1000100000000000000000000000000000000000e0
:10002000000000000000000000000000c307000006
:100030000000000000000000c30700004d070000a2
:10004000b5070000c3070000c3070000c307000096
:10005000c3070000c3070000c3070000c307000078
:10006000c3070000c3070000c3070000c307000068
:10007000c3070000dd000000c3070000c307000045
:10008000c3070000c3070000c3070000c307000048
:10009000c3070000c3070000c3070000c307000038
:1000a000c3070000c3070000c3070000c307000028
:0c00b000c3070000c3070000c3070000e6
:020000040000fa
:1000bc00f8b5c046f8bc08bc9e4670472905000040
:1000cc00f8b5c046f8bc08bc9e4670470105000058
:020000040000fa
:1000dc00f8b5ce46474680b55b4b9b7d002b17d0c1
:1000ec00594a137edbb2927d52b2002a14db564a77
:1000fc00137edbb2927dd20702d5db0700d588e0f8
:10010c00514a137edbb2927d520701d55b0752d464
:10011c000cbc90469946f8bd5bb2002be7da4a4b13
:10012c005b8b07221340e2d0484ce38500f0a2fa27
:10013c00454b84221a752c230022e254636a002b4f
:10014c00d5d0424a906a9847d1e78368591c8160a0
:10015c006146cb5c1385b168137e4d462b420fd0a4
:10016c008c420dd953683b40012beed143469b6822
:10017c00591c4546a9605b0061465b5a1385eae74a
:10018c00324b9a685b689a42bad3304b00221a758c
:10019c005a602d4a01211175db68002bb0d02b4a17
:1001ac0010699847ace7294988690a6a541c0c62a3
:1001bc005200135217e0254a2c23d35c002ba7d0f6
:1001cc00224b1a6adb699a42a2d21f4a138d9bb248
:1001dc00516807220a40012ae5d01c4a9069116a2d
:1001ec004c1c14624354194b1a6adb699a4200d0b6
:1001fc008ee7164b00222c215a54da61124a5831e0
:10020c0011755b6a002b00d182e7104a906a9847ff
:10021c007ee70e4b1b7d002b00d171e70b4b9a68d0
:10022c005c68094b1b7edb07aad5a242a8d2074b00
:10023c001b689c46044a0727044b984618001e006e
:10024c00012399468ee7c0460014004200000020ae
:020000040000fa
:10025c00284b01229a74284a1a8219000122cb6871
:10026c001a42fcd0254b5a6852031b68db0c134313
:10027c009b029b0a1f4a93630123537511000422ae
:10028c008b691a42fcd11b491022cb681a42fcd054
:10029c001b4b00229a611a611a4b1b4a1a621900f5
:1002ac0004224b681a42fcd1164adc234021d1505f
:1002bc0010009c31402243581a42fcd0114af023c2
:1002cc004021d1501000b031402243581a42fcd08a
:1002dc000c4af8234021d1501000b8314022435829
:1002ec001a42fcd0094b91225201da61014b0222d5
:1002fc005a607047001000400a0400002060800023
:10030c0000140040001c00400001010000080040e7
:020000040000fa
:10031c00f0b5c6461f4a204b00b50021934203d2cc
:10032c00197001339342fbd10b231c4a9c46083baa
:10033c0098461368546819000026214311d0170001
:10034c0091680c3700290fd11a19002c03d01e709c
:10035c0001339342fbd13a001368546819002143ce
:10036c00edd104bc9046f0bd6146c91a1d19511857
:10037c00002c05d05a1c505c187013009542f9d112
:10038c00434623405a1e9341a4081c19a4003f194c
:10039c003a00e1e7000000200000002064040000a7
:020000040000fa
:1003ac0070b5002826d0144b1a7d0023002a1fd1cb
:1003bc00114b1860596001321a7500230f4c01253e
:1003cc00072602e0c25c22850133227e2a4209d034
:1003dc00994207d062683240012af3d15a00825afe
:1003ec002285f1e7044a9360044b01229a7501239c
:1003fc00180070bd0023fbe7000000200014004231
:020000040000fa
:10040c00114b124a1a60124a9a81c02292025a6007
:10041c001a00d369002bfcd10b4a136802210b4341
:10042c001360d369002bfcd10a4b00229a61da616c
:10043c001a622c215a545a621a605a609a601a75c0
:10044c00da60da857047c04600140042040131407e
:08045c005cfeffff0000002020
:020000040000fa
:10046400300000201c0000000000000058000020a4
:100474000800000000000000000000203000000020
:10048400000000004c0000200c00000000000000f0
:1004940060000020040000000000000000000000d4
:1004a40000000000222222222222222222222222b0
:020000040000fa
:1004b4000e4b01221a6019008b681a42fcd10b4bb7
:1004c400802252011a600222da6300225a61084a29
:1004d4001a64084a5a649a641822da641a65064a45
:1004e400da621a009368002bfcd1704700240042a2
:0c04f400c05d0000e02e00000ffc0f00b7
:020000040000fa
:1005000010b5064c2378002b07d1054b002b02d0e9
:10051000044800e000bf0123237010bd300000201c
:100520000000000000000000044b10b5002b03d0b9
:100530000349044800e000bf10bdc04600000000b1
:0805400034000020000000005f
:020000040000fa
:1005480010b50a4b98470a4b9847fff7e3fe094b4b
:10055800ff229343084a9360084b9847084b9847f3
:10056800084b984700f09ef8fee7c046c907000010
:10057800c90700000000000000ed00e09105000040
:08058800c9070000c9070000cb
:020000040000fa
:1005900070b500260c4d0d4c641ba410a64209d169
:1005a0000026fff78bfd0a4d0a4c641ba410a642df
:1005b00005d170bdb300eb5898470136eee7b300a4
:1005c000eb5898470136f2e7c8000000c800000069
:0805d000c8000000cc0000008f
:020000040000fa
:1005d800bff35f8f62b60c4bc02189005a58ff20c9
:1005e80082433f3802435a5001221a60c3208000d8
:1005f8001a5806491140c02212020a431a50802292
:1006080092011a607047c04600e100e0ff00ffff5a
:020000040000fa
:100618000b4b01221a6019000b691a42fcd1084bd6
:1006280014221a60123a1a731632da760c3a1a77ca
:100638005a7727329a721a001369002bfcd1704737
:04064800003000423c
:020000040000fa
:10064c0010b50b4b06225a6000f054f8fff700fe71
:10065c0000f0a4f800f0aef8fff726ff00f05ef80b
:10066c00fff7cefefff7d2fffff7b0ff10bdc0467d
:04067c0000400041f9
:020000040000fa
:10068000094b5b8b5b070dd0074b80221a76793aba
:100690005a831b7e5b0705d5034b04211a8d1a7ef6
:0c06a0000a42fbd17047c0460014004223
:020000040000fa
:1006ac0010b50020fff7ccff00f06af800f05af804
:1006bc00044c01212000fff773fe034b013b002b80
:0c06cc00fcd1f6e7bc07000063870b00c0
:020000040000fa
:1006d80010b5074bdb689b0709d5054b02229a60ca
:1006e800044b1b68002b02d0024a5068984710bd83
:0806f800001000405800002032
:020000040000fa
:100700008223db050122ca215a5401315a54013196
:100710005a5412315a54b432ab399954b13a8331e4
:080720005a5409315a54704784
:020000040000fa
:10072800054a002313609360044951600621116053
:10073800034a93601360704710e000e07fa903004c
:040748004c00002041
:020000040000fa
:10074c0010b5064b1b68064b9a6801329a601b6801
:10075c00002b02d0024a5068984710bd10e000e010
:04076c004c0000201d
:020000040000fa
:10077000054a136802210b431360110002220b6922
:0c0780001a42fcd17047c0460030004215
:020000040000fa
:10078c00054a136802210b431360110002228b6887
:0c079c001a42fcd17047c0460024004205
:020000040000fa
:0c07a800014b82225a6070470040004163
:020000040000fa
:0807b40010b5fff78fff10bd27
:020000040000fa
:0407bc005300c046e0
:020000040000fa
:0207c000704780
:020000040000fa
:0207c200fee750
:020000040000fa
:0207c400fee74e
:020000040000fa
:0207c600fee74c
:020000040000fa
:0207c800704778
:020000040000fa
:0200000400807a
:04400000770800003d
:020000040000fa
:0200000400807a
:044004000000ffffba
:00000001FF
